{
  "contractName": "Company",
  "abi": [
    {
      "inputs": [
        {
          "internalType": "address",
          "name": "_master",
          "type": "address"
        }
      ],
      "stateMutability": "nonpayable",
      "type": "constructor"
    },
    {
      "anonymous": false,
      "inputs": [
        {
          "indexed": true,
          "internalType": "address",
          "name": "master",
          "type": "address"
        }
      ],
      "name": "MasterSetup",
      "type": "event"
    },
    {
      "anonymous": false,
      "inputs": [
        {
          "indexed": true,
          "internalType": "address",
          "name": "owner",
          "type": "address"
        }
      ],
      "name": "OwnerAddition",
      "type": "event"
    },
    {
      "anonymous": false,
      "inputs": [
        {
          "indexed": true,
          "internalType": "address",
          "name": "owner",
          "type": "address"
        }
      ],
      "name": "OwnerRemoval",
      "type": "event"
    },
    {
      "anonymous": false,
      "inputs": [
        {
          "indexed": true,
          "internalType": "address",
          "name": "receiver",
          "type": "address"
        }
      ],
      "name": "ShareGivien",
      "type": "event"
    },
    {
      "anonymous": false,
      "inputs": [
        {
          "indexed": true,
          "internalType": "address",
          "name": "receiver",
          "type": "address"
        },
        {
          "indexed": false,
          "internalType": "uint256",
          "name": "amount",
          "type": "uint256"
        }
      ],
      "name": "Transfer",
      "type": "event"
    },
    {
      "inputs": [],
      "name": "master",
      "outputs": [
        {
          "internalType": "address",
          "name": "",
          "type": "address"
        }
      ],
      "stateMutability": "view",
      "type": "function",
      "constant": true
    },
    {
      "inputs": [
        {
          "internalType": "uint256",
          "name": "",
          "type": "uint256"
        }
      ],
      "name": "owners",
      "outputs": [
        {
          "internalType": "address",
          "name": "",
          "type": "address"
        }
      ],
      "stateMutability": "view",
      "type": "function",
      "constant": true
    },
    {
      "inputs": [
        {
          "internalType": "address",
          "name": "owner",
          "type": "address"
        }
      ],
      "name": "addOwners",
      "outputs": [],
      "stateMutability": "nonpayable",
      "type": "function"
    },
    {
      "inputs": [],
      "name": "getOwners",
      "outputs": [
        {
          "internalType": "address[]",
          "name": "",
          "type": "address[]"
        }
      ],
      "stateMutability": "view",
      "type": "function",
      "constant": true
    },
    {
      "inputs": [
        {
          "internalType": "address",
          "name": "owner",
          "type": "address"
        }
      ],
      "name": "checkIfOwner",
      "outputs": [
        {
          "internalType": "bool",
          "name": "",
          "type": "bool"
        }
      ],
      "stateMutability": "view",
      "type": "function",
      "constant": true
    },
    {
      "inputs": [
        {
          "internalType": "address",
          "name": "receiver",
          "type": "address"
        },
        {
          "internalType": "uint256",
          "name": "stake",
          "type": "uint256"
        }
      ],
      "name": "giveShare",
      "outputs": [],
      "stateMutability": "nonpayable",
      "type": "function"
    },
    {
      "inputs": [
        {
          "internalType": "address",
          "name": "receiver",
          "type": "address"
        },
        {
          "internalType": "uint256",
          "name": "stake",
          "type": "uint256"
        }
      ],
      "name": "addShare",
      "outputs": [],
      "stateMutability": "nonpayable",
      "type": "function"
    },
    {
      "inputs": [
        {
          "internalType": "address",
          "name": "owner",
          "type": "address"
        }
      ],
      "name": "removeOwner",
      "outputs": [],
      "stateMutability": "nonpayable",
      "type": "function"
    }
  ],
  "bytecode": "0x60806040523480156200001157600080fd5b50604051620015be380380620015be833981810160405281019062000037919062000164565b80600260006101000a81548173ffffffffffffffffffffffffffffffffffffffff021916908373ffffffffffffffffffffffffffffffffffffffff1602179055506298968060016000600260009054906101000a900473ffffffffffffffffffffffffffffffffffffffff1673ffffffffffffffffffffffffffffffffffffffff1673ffffffffffffffffffffffffffffffffffffffff16815260200190815260200160002081905550600260009054906101000a900473ffffffffffffffffffffffffffffffffffffffff1673ffffffffffffffffffffffffffffffffffffffff167f6c950dc6c0a4b4c7d527e1da814cbc86207d620f6539d17cee4299bc3463a0a960405160405180910390a250620001e9565b6000815190506200015e81620001cf565b92915050565b6000602082840312156200017d576200017c620001ca565b5b60006200018d848285016200014d565b91505092915050565b6000620001a382620001aa565b9050919050565b600073ffffffffffffffffffffffffffffffffffffffff82169050919050565b600080fd5b620001da8162000196565b8114620001e657600080fd5b50565b6113c580620001f96000396000f3fe608060405234801561001057600080fd5b50600436106100885760003560e01c8063760db25f1161005b578063760db25f14610111578063a0e67e2b1461012d578063c022eb281461014b578063ee97f7f31461017b57610088565b8063025e7c271461008d578063173825d9146100bd57806350f4f9f8146100d95780635f3b1f3b146100f5575b600080fd5b6100a760048036038101906100a29190610df6565b610199565b6040516100b49190610f61565b60405180910390f35b6100d760048036038101906100d29190610d89565b6101d8565b005b6100f360048036038101906100ee9190610db6565b6104f4565b005b61010f600480360381019061010a9190610d89565b61081a565b005b61012b60048036038101906101269190610db6565b6109bb565b005b610135610c56565b6040516101429190610f7c565b60405180910390f35b61016560048036038101906101609190610d89565b610ce4565b6040516101729190610f9e565b60405180910390f35b610183610d39565b6040516101909190610f61565b60405180910390f35b600381815481106101a957600080fd5b906000526020600020016000915054906101000a900473ffffffffffffffffffffffffffffffffffffffff1681565b600260009054906101000a900473ffffffffffffffffffffffffffffffffffffffff1673ffffffffffffffffffffffffffffffffffffffff163373ffffffffffffffffffffffffffffffffffffffff161461023257600080fd5b6000808273ffffffffffffffffffffffffffffffffffffffff1673ffffffffffffffffffffffffffffffffffffffff16815260200190815260200160002060009054906101000a900460ff166102bd576040517f08c379a00000000000000000000000000000000000000000000000000000000081526004016102b490610ff9565b60405180910390fd5b60008060008373ffffffffffffffffffffffffffffffffffffffff1673ffffffffffffffffffffffffffffffffffffffff16815260200190815260200160002060006101000a81548160ff02191690831515021790555060005b600160038054905061032991906110f4565b811015610466578173ffffffffffffffffffffffffffffffffffffffff166003828154811061035b5761035a611217565b5b9060005260206000200160009054906101000a900473ffffffffffffffffffffffffffffffffffffffff1673ffffffffffffffffffffffffffffffffffffffff16141561045357600360016003805490506103b691906110f4565b815481106103c7576103c6611217565b5b9060005260206000200160009054906101000a900473ffffffffffffffffffffffffffffffffffffffff166003828154811061040657610405611217565b5b9060005260206000200160006101000a81548173ffffffffffffffffffffffffffffffffffffffff021916908373ffffffffffffffffffffffffffffffffffffffff160217905550610466565b808061045e90611170565b915050610317565b506003805480610479576104786111e8565b5b6001900381819060005260206000200160006101000a81549073ffffffffffffffffffffffffffffffffffffffff021916905590558073ffffffffffffffffffffffffffffffffffffffff167f8001553a916ef2f495d26a907cc54d96ed840d7bda71e73194bf5a9df7a76b9060405160405180910390a250565b6000803373ffffffffffffffffffffffffffffffffffffffff1673ffffffffffffffffffffffffffffffffffffffff16815260200190815260200160002060009054906101000a900460ff16806105985750600260009054906101000a900473ffffffffffffffffffffffffffffffffffffffff1673ffffffffffffffffffffffffffffffffffffffff163373ffffffffffffffffffffffffffffffffffffffff16145b6105d7576040517f08c379a00000000000000000000000000000000000000000000000000000000081526004016105ce90610fb9565b60405180910390fd5b80600160003373ffffffffffffffffffffffffffffffffffffffff1673ffffffffffffffffffffffffffffffffffffffff168152602001908152602001600020541015610659576040517f08c379a000000000000000000000000000000000000000000000000000000000815260040161065090611019565b60405180910390fd5b6000808373ffffffffffffffffffffffffffffffffffffffff1673ffffffffffffffffffffffffffffffffffffffff16815260200190815260200160002060009054906101000a900460ff166106e4576040517f08c379a00000000000000000000000000000000000000000000000000000000081526004016106db90610fd9565b60405180910390fd5b80600160003373ffffffffffffffffffffffffffffffffffffffff1673ffffffffffffffffffffffffffffffffffffffff1681526020019081526020016000205461072f91906110f4565b600160003373ffffffffffffffffffffffffffffffffffffffff1673ffffffffffffffffffffffffffffffffffffffff1681526020019081526020016000208190555080600160008473ffffffffffffffffffffffffffffffffffffffff1673ffffffffffffffffffffffffffffffffffffffff16815260200190815260200160002060008282546107c1919061109e565b925050819055508173ffffffffffffffffffffffffffffffffffffffff167f69ca02dd4edd7bf0a4abb9ed3b7af3f14778db5d61921c7dc7cd545266326de28260405161080e9190611039565b60405180910390a25050565b600260009054906101000a900473ffffffffffffffffffffffffffffffffffffffff1673ffffffffffffffffffffffffffffffffffffffff163373ffffffffffffffffffffffffffffffffffffffff161461087457600080fd5b60016000808373ffffffffffffffffffffffffffffffffffffffff1673ffffffffffffffffffffffffffffffffffffffff16815260200190815260200160002060006101000a81548160ff0219169083151502179055506003819080600181540180825580915050600190039060005260206000200160009091909190916101000a81548173ffffffffffffffffffffffffffffffffffffffff021916908373ffffffffffffffffffffffffffffffffffffffff160217905550624c4b40600160008373ffffffffffffffffffffffffffffffffffffffff1673ffffffffffffffffffffffffffffffffffffffff168152602001908152602001600020819055508073ffffffffffffffffffffffffffffffffffffffff167ff39e6e1eb0edcf53c221607b54b00cd28f3196fed0a24994dc308b8f611b682d60405160405180910390a250565b6000803373ffffffffffffffffffffffffffffffffffffffff1673ffffffffffffffffffffffffffffffffffffffff16815260200190815260200160002060009054906101000a900460ff1680610a5f5750600260009054906101000a900473ffffffffffffffffffffffffffffffffffffffff1673ffffffffffffffffffffffffffffffffffffffff163373ffffffffffffffffffffffffffffffffffffffff16145b610a9e576040517f08c379a0000000000000000000000000000000000000000000000000000000008152600401610a9590610fb9565b60405180910390fd5b80600160003373ffffffffffffffffffffffffffffffffffffffff1673ffffffffffffffffffffffffffffffffffffffff168152602001908152602001600020541015610b20576040517f08c379a0000000000000000000000000000000000000000000000000000000008152600401610b1790611019565b60405180910390fd5b80600160003373ffffffffffffffffffffffffffffffffffffffff1673ffffffffffffffffffffffffffffffffffffffff16815260200190815260200160002054610b6b91906110f4565b600160003373ffffffffffffffffffffffffffffffffffffffff1673ffffffffffffffffffffffffffffffffffffffff1681526020019081526020016000208190555080600160008473ffffffffffffffffffffffffffffffffffffffff1673ffffffffffffffffffffffffffffffffffffffff1681526020019081526020016000206000828254610bfd919061109e565b925050819055508173ffffffffffffffffffffffffffffffffffffffff167f69ca02dd4edd7bf0a4abb9ed3b7af3f14778db5d61921c7dc7cd545266326de282604051610c4a9190611039565b60405180910390a25050565b60606003805480602002602001604051908101604052809291908181526020018280548015610cda57602002820191906000526020600020905b8160009054906101000a900473ffffffffffffffffffffffffffffffffffffffff1673ffffffffffffffffffffffffffffffffffffffff1681526020019060010190808311610c90575b5050505050905090565b60008060008373ffffffffffffffffffffffffffffffffffffffff1673ffffffffffffffffffffffffffffffffffffffff16815260200190815260200160002060009054906101000a900460ff169050919050565b600260009054906101000a900473ffffffffffffffffffffffffffffffffffffffff1681565b600081359050610d6e81611361565b92915050565b600081359050610d8381611378565b92915050565b600060208284031215610d9f57610d9e611246565b5b6000610dad84828501610d5f565b91505092915050565b60008060408385031215610dcd57610dcc611246565b5b6000610ddb85828601610d5f565b9250506020610dec85828601610d74565b9150509250929050565b600060208284031215610e0c57610e0b611246565b5b6000610e1a84828501610d74565b91505092915050565b6000610e2f8383610e3b565b60208301905092915050565b610e4481611128565b82525050565b610e5381611128565b82525050565b6000610e6482611064565b610e6e818561107c565b9350610e7983611054565b8060005b83811015610eaa578151610e918882610e23565b9750610e9c8361106f565b925050600181019050610e7d565b5085935050505092915050565b610ec08161113a565b82525050565b6000610ed360158361108d565b9150610ede8261124b565b602082019050919050565b6000610ef6602f8361108d565b9150610f0182611274565b604082019050919050565b6000610f19602a8361108d565b9150610f24826112c3565b604082019050919050565b6000610f3c60228361108d565b9150610f4782611312565b604082019050919050565b610f5b81611166565b82525050565b6000602082019050610f766000830184610e4a565b92915050565b60006020820190508181036000830152610f968184610e59565b905092915050565b6000602082019050610fb36000830184610eb7565b92915050565b60006020820190508181036000830152610fd281610ec6565b9050919050565b60006020820190508181036000830152610ff281610ee9565b9050919050565b6000602082019050818103600083015261101281610f0c565b9050919050565b6000602082019050818103600083015261103281610f2f565b9050919050565b600060208201905061104e6000830184610f52565b92915050565b6000819050602082019050919050565b600081519050919050565b6000602082019050919050565b600082825260208201905092915050565b600082825260208201905092915050565b60006110a982611166565b91506110b483611166565b9250827fffffffffffffffffffffffffffffffffffffffffffffffffffffffffffffffff038211156110e9576110e86111b9565b5b828201905092915050565b60006110ff82611166565b915061110a83611166565b92508282101561111d5761111c6111b9565b5b828203905092915050565b600061113382611146565b9050919050565b60008115159050919050565b600073ffffffffffffffffffffffffffffffffffffffff82169050919050565b6000819050919050565b600061117b82611166565b91507fffffffffffffffffffffffffffffffffffffffffffffffffffffffffffffffff8214156111ae576111ad6111b9565b5b600182019050919050565b7f4e487b7100000000000000000000000000000000000000000000000000000000600052601160045260246000fd5b7f4e487b7100000000000000000000000000000000000000000000000000000000600052603160045260246000fd5b7f4e487b7100000000000000000000000000000000000000000000000000000000600052603260045260246000fd5b600080fd5b7f4f6e6c79206d6173746572206f72206f776e6572730000000000000000000000600082015250565b7f5468652072656365697069656e742073686f756c64206f6e6c79206265206f6e60008201527f65206f6620746865206f776e6572730000000000000000000000000000000000602082015250565b7f4f6e6c79206f776e6572732063616e2062652072656d6f7665642066726f6d2060008201527f6f776e6572206c69737400000000000000000000000000000000000000000000602082015250565b7f5374616b652065786365656473207468652073656e64657220616c6c6f77616e60008201527f6365000000000000000000000000000000000000000000000000000000000000602082015250565b61136a81611128565b811461137557600080fd5b50565b61138181611166565b811461138c57600080fd5b5056fea2646970667358221220ffd8db67c9f7d5da7bd36722982e6cdc170ee08f27fd48c2661cb6e112efc50564736f6c63430008070033",
  "immutableReferences": {},
  "source": "// SPDX-License-Identifier: MIT\npragma solidity ^0.8.7;\n\n    \ncontract Company {\n    \n    // Company contract.\n    // owners of the contract are the share holders of the company.\n\n    mapping(address => bool) isOwner;\n    mapping(address => uint256) share;\n    address public master;\n    address[] public owners;\n    \n    // Events\n    event MasterSetup(address indexed master);\n    \n    event OwnerAddition(address indexed owner);\n    \n    event ShareGivien(address indexed receiver);\n    \n    event Transfer(address indexed receiver, uint256 amount);\n    \n    event OwnerRemoval(address indexed owner);\n    \n    modifier onlyMaster() {\n        require(msg.sender == address(master));\n        _;\n    }\n    \n    modifier onlyOwners() {\n        require(isOwner[msg.sender], \"Only owner can be added\");\n        _;\n    }\n    \n    modifier onlyAdmins() {\n        require(isOwner[msg.sender] || msg.sender == address(master), \"Only master or owners\");\n        _;\n    }\n    \n    // designates the President -> constructor(address master)\n    constructor(address _master) {\n        master = _master;\n        share[master] = 10000000;\n        emit MasterSetup(master);\n    }\n    \n    \n    // designates the owner of the company -> setupOwners()\n    function addOwners(address owner) \n        onlyMaster \n        public\n    {\n        isOwner[owner] = true;\n        owners.push(owner);\n        share[owner] = 5000000;\n        \n        emit OwnerAddition(owner);\n    }\n    \n    // gets the addresses of the company -> getOwners()\n    function getOwners()\n        public\n        view\n        returns (address[] memory)\n    {\n        return owners;\n    }\n    \n    // check if the given address is one of the owners -> isOwner()\n    function checkIfOwner(address owner)\n        public\n        view\n        returns (bool)\n    {\n        return isOwner[owner];\n    }\n    \n    // can give share to anyone they want -> giveShare()\n    function giveShare(address receiver, uint256 stake)\n        public\n        onlyAdmins\n    {\n        require(share[msg.sender] >= stake, \"Stake exceeds the sender allowance\");\n        share[msg.sender] = share[msg.sender] - stake;\n        share[receiver] += stake;\n        \n        emit Transfer(receiver, stake);\n    }\n    \n    // can give share only to one of the owners -> addShare()\n    function addShare(address receiver, uint256 stake)\n        public\n        onlyAdmins\n    {\n        require(share[msg.sender] >= stake, \"Stake exceeds the sender allowance\");\n        require(isOwner[receiver], \"The receipient should only be one of the owners\");\n        share[msg.sender] = share[msg.sender] - stake;\n        share[receiver] += stake;\n        \n        emit Transfer(receiver, stake);\n    }\n    \n    // remove the owner from the owners list(only master can do it) -> removeOwner()\n    function removeOwner(address owner)\n        public\n        onlyMaster\n    {\n        require(isOwner[owner], \"Only owners can be removed from owner list\");\n        isOwner[owner] = false;\n        for (uint i = 0; i < owners.length - 1; i++)\n            if (owners[i] == owner) {\n                owners[i] = owners[owners.length - 1];\n                break;\n            }\n        owners.pop();\n        \n        emit OwnerRemoval(owner);\n    }\n}\n",
  "sourcePath": "/Users/kimyongjun/Figment/polygon_unitTest/contracts/Company.sol",
  "compiler": {
    "name": "solc",
    "version": "0.8.7+commit.e28d00a7.Emscripten.clang"
  },
  "schemaVersion": "3.4.1",
  "updatedAt": "2021-10-21T00:38:31.768Z",
  "networkType": "ethereum",
  "devdoc": {
    "kind": "dev",
    "methods": {},
    "version": 1
  },
  "userdoc": {
    "kind": "user",
    "methods": {},
    "version": 1
  }
}